:020000040800F2
:1000000050050020C1070008990500089B0500085D
:100010009F050008A3050008A705000800000000D0
:10002000000000000000000000000000AB05000818
:10003000AD05000800000000AF050008D907000862
:10004000DB070008DB070008DB070008DB07000808
:10005000DB070008DB070008DB070008DB070008F8
:10006000DB070008DB070008DB070008DB070008E8
:10007000DB070008DB070008DB070008DB070008D8
:10008000DB070008DB070008DB070008DB070008C8
:10009000DB070008DB070008DB070008DB070008B8
:1000A000DB070008DB070008DB070008DB070008A8
:1000B000DB070008DB070008DB070008DB07000898
:1000C000DB070008DB070008DB070008DB07000888
:1000D000DB070008D5170008DB070008DB0700086E
:1000E000DB070008DB070008DB070008DB07000868
:1000F000DB070008DB070008DB070008DB07000858
:10010000DB070008DB070008DB070008DB07000847
:10011000DB070008DB070008DB070008DB07000837
:10012000DB070008DB070008DB070008DB07000827
:10013000DB070008DB070008DB070008DB07000817
:10014000DB070008DB070008DB070008DB07000807
:10015000DB070008DB070008DB070008DB070008F7
:10016000DB070008DB070008DB070008DB070008E7
:10017000DB070008DB070008DB070008DB070008D7
:10018000DB070008DB070008DFF80CD001F0C8FD32
:10019000004800479D0100085005002001F060FB69
:1001A000A82001F031FA4FF4165001F0BDFA4FF4D7
:1001B000A06000F017FB01F08DFB01F07EFD4FF415
:1001C000FA7001F083FAD0E188E0002401F065FCC8
:1001D0000446052C06D0062C24D0072C12D0082C5F
:1001E0003ED12EE00120E14908600020E049C1F83D
:1001F0009C020120DD49083108600020DC49C1F87B
:10020000A4023AE00020D94908600120D849C1F889
:100210009C020020D549083108600120D449C1F86A
:10022000A4022AE00120D14908600020D049C1F889
:100230009C02CE49083108600120CD49C1F8A402D2
:100240001BE00020C94908600120C949C1F89C028F
:10025000C649083108600020C549C1F8A4020CE075
:100260000020C2490860C249C1F89C02BF49083158
:100270000860BF49C1F8A40200BF00BF1CB12146FD
:10028000BCA001F05FFD322001F020FA01F005FC76
:10029000BD49087001F001FCBB49087008460078B0
:1002A00020B108460178B3A001F04CFD322001F0E6
:1002B0000DFAB54800780B2802D00C2808D103E0CD
:1002C0000120B249086004E00020B049086000E065
:1002D00004E000BF322001F0F9F900BFAB4800682C
:1002E00000283FF472AF3BE10821A94800F0D2FB9F
:1002F00000286ED14FF40061A54800F0CBFB002828
:1003000043D00421A24800F0C5FBF8B10020974972
:1003100008609749C1F89C029449083108609449E3
:10032000C1F8A4020A2001F0D1F901208F49086028
:100330000020091D08600120091D086000208C496B
:10034000C1F8A4020C2001F0C1F9E5E000208749C2
:1003500008608749C1F89C028449083108608449D3
:10036000C1F8A4020A2001F0B1F900207F49086019
:100370000120091D0860091D086000207C49C1F8A2
:10038000A4020C2001F0A2F9C6E00421804800F08C
:1003900081FBF8B10020754908607549C1F89C02DD
:1003A0007249083108607249C1F8A4020A2001F0BC
:1003B0008DF901206D4908600020091D0860091DA4
:1003C000086001206A49C1F8A4020C2001F07EF9FE
:1003D000A2E01FE00020654908606549C1F89C0261
:1003E0006249083108606249C1F8A4020A2001F09C
:1003F0006DF901205D4908600020091D0860012099
:10040000091D086000205A49C1F8A4020C2001F01F
:100410005DF981E05F49086800EBD0714910A0EBFD
:10042000410100294FD11E2445E000204F490860BA
:100430004F49C1F89C024D49083108604C49C1F848
:10044000A4020A2001F042F9012048490860002076
:10045000091D08600120091D086000204449C1F8F9
:10046000A4020C2001F032F91DE000203F49086091
:100470003F49C1F89C023D49083108603C49C1F838
:10048000A4020A2001F022F9012038490860002066
:10049000091D0860091D086001203549C1F8A40242
:1004A0000C2001F013F94FF40061394800F0F2FA22
:1004B0000028DAD0641E002CB7DC36480068401CE7
:1004C0003449086028E02D2423E0002027490860F3
:1004D0002749C1F89C022549083108602449C1F820
:1004E000A4020A2001F0F2F801202049086000204F
:1004F000091D08600120091D08600020091D086011
:100500000C2001F0E3F823480068401C21490860F2
:10051000641E002CD9DC00BF01F0BFFA1A49087034
:100520000846007820B10846017812A001F00AFCC4
:10053000322001F0CBF8144800780B2802D00C28A8
:1005400008D103E001201149086004E000200F49B0
:10055000086000E004E000BF322001F0B7F800BFFF
:100560000A48006800287FF4BFAE2DE6988240421A
:1005700000804042256420206973202070726573DA
:1005800073656420200D0A001C0000201800002064
:100590000000024020000020704700BFFEE700BFBF
:1005A000FEE700BFFEE700BFFEE7704770477047F9
:1005B0000CB50020019000907648006840F480302F
:1005C0007449086000BF7348006800F40030009070
:1005D0000198401C0190009818B90198B0F5A04FFF
:1005E000F1D16C48006800F4003010B10120009097
:1005F00001E0002000900098012846D16548403075
:10060000006840F0805063494031086062480068EB
:1006100040F44040604908605E48083000685D4929
:10062000083108600846006840F400400860084649
:10063000006840F4A05008605848091F0860081F6F
:10064000006840F08070091F086000BF51480068D2
:1006500000F000700028F9D040F2057050490860A1
:100660004C480830006820F003004A49083108600F
:100670000846006840F00200086000BF45480830A6
:10068000006800F00C000828F8D10CBD10B54548F2
:10069000006840F47000434908603E48006840F03C
:1006A00001003C49086000203A4908310860394897
:1006B00000683D490840374908603C48091D08600A
:1006C000081F006820F48020091F086000203149BD
:1006D0000C310860FFF76CFF4FF000603149803942
:1006E000086010BD70B50020002202230024022102
:1006F000284D08352D6805F00C0020B1042806D0DF
:10070000082834D107E02A4D2A4E356033E02A4DBF
:10071000284E35602FE01F4D2D1D2D68C5F38054E8
:100720001C4D2D1D2D6805F03F0154B1224DB5FB28
:10073000F1F5184E361D3668C6F3881605FB06F22D
:1007400009E01B4DB5FBF1F5124E361D3668C6F3B8
:10075000881605FB06F20F4D2D1D2D68C5F30145CA
:100760006D1C6B00B2FBF3F5124E356003E0104DCB
:10077000104E356000BF00BF064D08352D68C5F32B
:1007800003150E4E705D0B4D2D68C540094E35604A
:1007900070BD00000038024000700040085440075F
:1007A000003C024088ED00E0FFFFF6FE1030002420
:1007B0000024F4002400002000127A002800002009
:1007C0000648804706480047FEE7FEE7FEE7FEE7EB
:1007D000FEE7FEE7FEE7FEE7FEE7FEE78D06000820
:1007E0008901000832490143324A1160704770B5EF
:1007F000002100230F22C4781CB32E4C246804F47B
:10080000E064C4F5E064C4F30721C1F10404E3B279
:100810000A4144789C40E1B28478144021430C079B
:10082000210E254C05786155047804F01F0501243C
:10083000AC4005786D11AD0005F1E025C5F800412B
:1008400009E0047804F01F050124AC401B4D067834
:10085000761145F8264070BD194A0A400243154BEF
:100860001B1F1A60704739B1124A121D12680243E9
:10087000104B1B1D1A6006E00E4A121D12688243BF
:100880000C4B1B1D1A607047042808D14FF0E02163
:10089000096941F004014FF0E022116107E04FF0D7
:1008A000E021096921F004014FF0E0221161704755
:1008B0000000FA050CED00E000E400E080E100E05B
:1008C00080FFFF1F10B504469848844208D10121DB
:1008D000084600F086FB0021012000F082FB76E054
:1008E0009348844208D10121022000F07AFB0021C4
:1008F000022000F076FB6AE08E48844208D1012194
:10090000042000F06EFB0021042000F06AFB5EE092
:100910008948844208D10121082000F062FB0021AF
:10092000082000F05EFB52E08448844208D1012197
:10093000102000F056FB0021102000F052FB46E092
:100940007F48844208D10121202000F04AFB002189
:10095000202000F046FB3AE07A48844208D1012189
:10096000402000F03EFB0021402000F03AFB2EE04A
:100970007548844208D10121802000F032FB00211B
:10098000802000F02EFB22E07048844208D1012133
:10099000801500F026FB0021A01500F022FB16E0D8
:1009A0006B48844208D10121401500F01AFB002158
:1009B000601500F016FB0AE06648844207D1012169
:1009C000001500F00EFB0021201500F00AFB10BD01
:1009D000F0B50A4600210023002400BF3DE00125B8
:1009E00005FA01F3156805EA03049C4234D1056851
:1009F0004F000326BE40B543056015794E00B54053
:100A00000668354305601579012D02D01579022D50
:100A100016D185684F000326BE40B54385605579E1
:100A20004E00B540866835438560456801268E4096
:100A3000B5434560456896798E40B6B2354345600A
:100A4000C5684F000326BE40B543C560D5794E004A
:100A5000B540C6683543C560491C1029BFD3F0BDF9
:100A60004FF6FF7101600021017141718171C17107
:100A7000704708B54FF480320092009A0A43009202
:100A8000009AC261C161009AC261C2690092C269E2
:100A9000009208BD0246002013690B400BB10120F3
:100AA00000E0002070470146086980B270470246A6
:100AB000002053690B400BB1012000E0002070477B
:100AC0000146486980B2704701837047418370478F
:100AD0000AB1018300E04183704741617047426978
:100AE0004A4042617047F0B5002300244D07ED0EE7
:100AF00002FA05F3CE1000F1200555F826504E07F6
:100B0000F70E0F26BE40B543CF1000F1200646F881
:100B10002750CE1000F1200555F8265045EA030471
:100B2000CE1000F1200545F82640F0BD000002403F
:100B30000004024000080240000C02400010024085
:100B40000014024000180240001C02400020024035
:100B50000024024000280240F948006840F00100EB
:100B6000F74908600020F64908310860F448006839
:100B7000F4490840F2490860F348091D0860F34849
:100B8000EF4984310860F0481038091D0860EC48CE
:100B9000006820F48020EA4908600020E8490C3110
:100BA0000860E7498C31086070470021E44A921CD4
:100BB000117011460870704710B5014600220023DD
:100BC00000204A11012A02D1DD4C236808E0022AE4
:100BD00003D1DB4C7034236802E0D94C74342368B1
:100BE00001F01F02012494401C400CB1012000E0E0
:100BF000002010BD38B5002000900024002500BF63
:100C00003120FFF7D9FF05460098401C009000985E
:100C1000B0F5A04F01D0002DF2D03120FFF7CCFF6E
:100C200008B1012400E00024204638BD0146002020
:100C3000C34A106820F0F80040EAC1001060704715
:100C4000C349086070470021BD4A703211701170AD
:100C5000012802D004280AD104E00121B84A7032E8
:100C6000117005E00521B64A7032117000E000BF36
:100C700000BF7047B7490860704770B5049C41EAEF
:100C800082150126C6EB530645EA0645054345EAAB
:100C90000465AB4E361D356070BDAD4908667047C2
:100CA000820142EA0172A64B84331A607047A84958
:100CB0008866704710B5830143EA016343EA027313
:100CC0009F4C8834236010BDA14908677047A04934
:100CD000C864704702460020994B0833186820F01A
:100CE000EC6042EA01031843954B083318607047E3
:100CF00002460020924B0833186820F0784042EA00
:100D0000010318438E4B08331860704701460020DA
:100D10008B4A0832106820F00300084310607047C7
:100D200087480830006800F00C007047014600203A
:100D3000834A0832106820F0F000084310607047C2
:100D4000014600207E4A0832106820F4E050084333
:100D50001060704701460020794A0832106820F47C
:100D6000604040EAC10010607047F0B500210022E9
:100D70000024022500260223714F08373F6807F040
:100D80000C0121B1042905D0082937D105E0724FA3
:100D9000076036E0714F076033E0694F3F1D3F68E1
:100DA000C7F38056664F3F1D3F6807F03F036EB1A3
:100DB0006A4FB7FBF3F7DFF888C10CF1040CDCF8DD
:100DC00000C0CCF3881C07FB0CF40CE0624FB7FBAF
:100DD000F3F7DFF86CC10CF1040CDCF800C0CCF3C5
:100DE000881C07FB0CF4564F3F1D3F68C7F30147B3
:100DF0007F1C7D00B4FBF5F7076002E0564F0760EB
:100E000000BF00BF4E4F08373F6807F0F0010909E7
:100E1000534F7A5C0768D7404760494F08373F68AF
:100E200007F4E051890A4E4F7A5C4768D7408760E3
:100E3000434F08373F6807F46041490B484F7A5CDD
:100E40004768D740C760F0BD002100F44072B2F59A
:100E5000407F0AD13A4A0832116821F4F811414A18
:100E600002401143364A08321160354A7032126826
:100E7000C0F30B031A43324B70331A607047354985
:100E80004439086070473349403908607047364933
:100E90000860704701460020294A8C32106820F013
:100EA0001F004A1E1043264A8C32106070470146CC
:100EB0000020234A8C32106820F4F8504A1E40EA81
:100EC00002201F4A8C3210607047014600201C4AE5
:100ED0008C32106820F440100843106070470146BF
:100EE0000020174A8C32106820F44000084310603C
:100EF000704701460020124A8C32106820F44030BE
:100F000008431060704719490860704739B10C4AAE
:100F10003032126802430A4B30331A6006E0084A46
:100F2000303212688243064B30331A607047F9B191
:100F3000034A343212680243014B34331A601CE016
:100F400000380240FFFFF6EA103000240030002095
:100F500000004742800E47420024F40000127A004D
:100F600038000020FFFCFF0F5C014742E0114742C0
:100F70008F4A126882438E4B1A60704739B18C4A8F
:100F8000121D126802438A4B1B1D1A6006E0884A34
:100F9000121D12688243864B1B1D1A60704739B1BF
:100FA000834A0C3212680243814B0C331A6006E00C
:100FB0007F4A0C32126882437D4B0C331A607047B3
:100FC00039B17B4A103212680243794B10331A60F0
:100FD00006E0774A103212688243754B10331A606C
:100FE000704739B1724A243A12680243704B243B6D
:100FF0001A6006E06E4A243A126882436C4B243B26
:101000001A60704739B16A4A203A12680243684B45
:10101000203B1A6006E0664A203A12688243644B1D
:10102000203B1A60704739B1614A1C3A126802438A
:101030005F4B1C3B1A6006E05D4A1C3A1268824313
:101040005B4B1C3B1A60704739B1594A143A12681D
:101050000243574B143B1A6006E0554A143A126893
:101060008243534B143B1A60704739B1504A103ACF
:10107000126802434E4B103B1A6006E04C4A103A8D
:10108000126882434A4B103B1A60704739B1484A94
:101090001C3212680243464B1C331A6006E0444A75
:1010A0001C3212688243424B1C331A60704739B1BC
:1010B0003F4A2032126802433D4B20331A6006E05B
:1010C0003B4A203212688243394B20331A60704702
:1010D00039B1374A243212680243354B24331A603F
:1010E00006E0334A243212688243314B24331A60BB
:1010F000704739B12E4A2C32126802432C4B2C33E4
:101100001A6006E02A4A2C3212688243284B2C339C
:101110001A60704739B1264A303212680243244BB4
:1011200030331A6006E0224A303212688243204B84
:1011300030331A607047012808D11D493C310968D5
:1011400041F008011A4A3C32116007E018493C316D
:10115000096821F00801164A3C321160704739B124
:10116000134A273A12780243114B273B1A7006E0C4
:101170000F4A273A127882430D4B273B1A7070476B
:101180000B484030006840F08070094940310860E9
:10119000704701460020064A283A12680A400AB100
:1011A000012000E00020704701492639087070478F
:1011B0003438024010B50446FA48844208D101216F
:1011C0001020FFF752FF00211020FFF74EFF57E0DD
:1011D000F548844209D101214804FFF735FF002179
:1011E0004FF40030FFF730FF4AE0F048844209D165
:1011F00001218804FFF728FF00214FF48020FFF72A
:1012000023FF3DE0EA48844209D10121C804FFF7E9
:101210001BFF00214FF40020FFF716FF30E0E548E8
:10122000844209D101210805FFF70EFF00214FF488
:101230008010FFF709FF23E0DF48844208D1012135
:101240002020FFF712FF00212020FFF70EFF17E0FC
:10125000DA48844209D101218807FFF7F5FE002111
:101260004FF08040FFF7F0FE0AE0D548844207D1F6
:1012700001214005FFF7E8FE00216005FFF7E4FECD
:1012800010BD2DE9FF4705460E460024A14600BFCC
:10129000A046B08900B100BF2C8A24F44054F088E5
:1012A00004432C82AC8941F20C608443B0883189BC
:1012B0000843718908430443AC81AC8A24F4407428
:1012C000B0890443AC826846FFF74FFDB5488542BC
:1012D00002D0B948854202D1DDF80C9001E0DDF87A
:1012E0000890A88900F4004040B109EBC90000EB68
:1012F000091031684900B0FBF1F707E009EBC900BC
:1013000000EB091031688900B0FBF1F76420B7FBEE
:10131000F0F004012009642101FB1078A88900F491
:10132000004040B1322000EBC800B0FBF1F000F00B
:101330000700044308E0322000EB08106421B0FBF2
:10134000F1F000F00F0004432C81BDE8FF874FF45B
:101350001651016000218180C18001810C214181F1
:1013600000218181704710B502460020108A20F4C8
:1013700070600B884C8823438C882343CC8823439C
:101380001843108210BD0021018041808180C180FE
:10139000704721B1828942F40052828104E082893F
:1013A0004DF6FF731A4082817047028B02F47F4230
:1013B0000283028B0A430283704721B1828942F47F
:1013C0000042828103E08289C2F30E02828170476B
:1013D00021B1828A42F40062828204E0828A4FF262
:1013E000FF731A4082827047C1F3080282807047FF
:1013F00001468888C0F308007047028A4FF6F073F0
:101400001A400282028A0A430282704721B182890D
:1014100042F00202828104E082894FF6FD731A4095
:101420008281704782894FF2FF731A4082818289DC
:101430000A4382817047028A4FF6DF731A400282A4
:10144000028A0A430282704721B1028A42F4804232
:10145000028204E0028A4BF6FF731A400282704750
:10146000818941F001018181704721B1828A42F076
:101470000802828204E0828A4FF6F7731A40828261
:101480007047028BD2B20283028B42EA01220283AE
:10149000704721B1828A42F02002828204E0828A6F
:1014A0004FF6DF731A408282704721B1828A42F080
:1014B0001002828204E0828A4FF6EF731A40828221
:1014C0007047828A4FF6FB731A408282828A0A43EF
:1014D0008282704721B1828A42F00202828204E055
:1014E000828A4FF6FD731A40828270471AB1838A4E
:1014F0000B43838202E0838A8B4383827047F0B57B
:101500000346002400260025002040F66A17B94251
:1015100000D100BF1846C1F3421401F01F06012795
:1015200007FA06F5012C01D10C3004E0022C01D1A0
:10153000103000E014301AB107682F43076002E052
:101540000768AF430760F0BD02460020B1F5007F99
:1015500000D100BF13880B400BB1012000E0002038
:10156000704701F40072B2F5007F00D100BFCA439A
:101570000280704770B50246002400230025002039
:1015800040F66A16B14200D100BFC1F3421501F026
:101590001F03012606FA03F3012D13D19689334068
:1015A00017E00000001001400044004000480040E7
:1015B000004C004000500040001401400078004002
:1015C000007C0040022D02D1168A334001E0968A49
:1015D00033400C12012606FA04F41688344013B185
:1015E0000CB1012000E0002070BD10B500220023E6
:1015F00040F66A14A14200D100BF0A1201249440AF
:10160000A3B2DC43048010BD10B504466FF00400A3
:10161000FFF73AF9E11704EB5171C1F3C701394AF9
:1016200011701046007800EB4001C1EBC0104FF67E
:10163000FF7101EAC0003449088010BD0146314AFB
:1016400012784A434FF0E0235A6100229A611A4609
:10165000126942F001021A6100BF4FF0E0221069E6
:1016600000F001021AB100F48032002AF5D04FF0E8
:10167000E022126922F001024FF0E0231A610022F9
:101680009A6170470146204A12884A434FF0E0238E
:101690005A6100229A611A46126942F001021A61E7
:1016A00000BF4FF0E022106900F001021AB100F40F
:1016B0008032002AF5D04FF0E022126922F00102B8
:1016C0004FF0E0231A6100229A61704770B504461A
:1016D0004FF4077094FBF0F0C6B24FF4077094FB20
:1016E000F0F100FB114085B205E04FF40770FFF701
:1016F000C9FF701EC6B2002EF7D115B12846FFF7FC
:10170000C1FF70BD480000204A000020014600BF14
:10171000704700BF4E4A128802F04002002AF9D0FA
:10172000C2B24B4B9A80704710B588B00446012175
:101730000846FFF7EBFB01211020FFF741FC0722D1
:1017400009214448FFF7CFF907220A214148FFF752
:10175000CAF94FF4C060069002208DF81C008DF885
:101760001D0000208DF81E0001208DF81F0006A925
:101770003848FFF72DF902940020ADF80C00ADF8C1
:101780000E00ADF81000ADF814000C20ADF81200FA
:1017900002A92F48FFF775FD01212D48FFF7F9FD3C
:1017A00040212B48FFF7DDFE012240F22551284859
:1017B000FFF7A5FE25208DF8040003208DF8050015
:1017C0008DF8060001208DF8070001A8FFF70FF83B
:1017D00008B010BD10B540F225511D48FFF7CAFEF4
:1017E00010B31B48FFF704FEC4B21B48008800F486
:1017F0000040C8B91848008800F4804060B10A2C45
:1018000003D000201449088020E01348008840F4E9
:1018100000401149088019E00D2C06D10E480088BF
:1018200040F480400C49088010E00B480088C0F369
:101830000D000A490C5408480088401C06490880DD
:1018400008460088C72801DD0020088010BD000080
:1018500000100140000002405000002078000020ED
:101860001CB501210220FFF751FB4FF4707000906E
:1018700001208DF8040000208DF8060003208DF86B
:10188000050001208DF8070069461048FFF7A0F811
:101890004FF470710E48FFF717F94FF47070009015
:1018A00001208DF8040000208DF8060003208DF83B
:1018B000050002208DF8070069460448FFF788F804
:1018C0004FF470710148FFF701F91CBD000402409C
:1018D000000002401CB501210820FFF717FB54202F
:1018E000009001208DF8040000208DF806000320F0
:1018F0008DF8050001208DF807006946F648FFF7CE
:1019000067F85421F448FFF7DFF801200090002029
:101910008DF8040003208DF8050001208DF80700E4
:101920006946ED48FFF754F81CBD38B50446012060
:1019300000900020E9494870012000902EE0BDF899
:101940000000204018B10120E549086002E00020B5
:10195000E34908600120E249103108600520FFF7E3
:101960006DFE0020DF49C1F898020520FFF766FEF2
:101970000120DC49C1F898020846D0F8000230B1D5
:10198000D6484078BDF800100843D4494870BDF8E7
:1019900000004FF6FF7101EA40000090BDF8000022
:1019A000FF28CCDD1020FFF749FE38BD10B5002020
:1019B000CB4908310860CC490878FFF7B6FFCA491F
:1019C0004878FFF7B2FF0120C649C1F89002C3482A
:1019D0004078732801D1002010BD0120FCE71CB520
:1019E00000200190012000900020BD4908310860CE
:1019F000BD490878FFF799FFBB494878FFF795FF85
:101A00000220019036E00120009027E00120B44937
:101A1000103108600520FFF711FE0020B149C1F820
:101A200098020520FFF70AFE0120AE49C1F898028E
:101A30000846D0F8000250B1A8489DF80410405C58
:101A4000BDF800100843A5499DF804208854BDF84E
:101A500000004FF6FF7101EA40000090BDF8000061
:101A6000FF28D3DD1020FFF7E9FD9DF80400401C9E
:101A7000C0B201909DF804000928C4DB01209849F8
:101A8000083108601CBD002004E00021934A115475
:101A9000411CC8B20928F8DB704710B5FFF7F3FF07
:101AA000FFF79DFF8D48C0788C49097940EA0120F5
:101AB0008E49088000240FE08D4810F81400401E65
:101AC000012101FA00F089490988084010B9601C19
:101AD000C0B210BD601CC4B2102CEDDB0020F8E7D2
:101AE00001467E48405C704770B505460C460020B4
:101AF0007B49083108601020FFF7A0FD0120FFF7A7
:101B000014FF4220FFF711FF0020FFF70EFF2846C9
:101B1000FFF70BFF2046FFF708FF0020FFF705FF48
:101B20000020FFF702FF0020FFF7FFFE0020FFF775
:101B3000FCFE01206B49C1F890021020FFF77EFDEA
:101B400070BD10B500206649083108601020FFF70D
:101B500075FD0120FFF7E9FE4220FFF7E6FE0020B9
:101B6000FFF7E3FE0020FFF7E0FE0020FFF7DDFEB9
:101B700001205C49C1F890021020FFF75FFD10BD05
:101B800010B500205649083108601020FFF756FDB7
:101B90000120FFF7CAFE4320FFF7C7FE0020FFF732
:101BA000C4FE0120FFF7C1FE0020FFF7BEFE0020AB
:101BB000FFF7BBFE0020FFF7B8FE0020FFF7B5FEE1
:101BC0000020FFF7B2FE01204649C1F89002102024
:101BD000FFF734FD10BD10B5002041490831086001
:101BE0000120FFF7A2FE4420FFF79FFE0020FFF731
:101BF0009CFE0120FFF799FE0320FFF796FE0020D0
:101C0000FFF793FE0020FFF790FE0020FFF78DFE08
:101C10000020FFF78AFE01203249C1F8900210200F
:101C2000FFF70CFD10BD10B500202D4908310860EC
:101C30001020FFF703FD0120FFF777FE4D20FFF78F
:101C400074FE0020FFF771FE0020FFF76EFE0120FA
:101C5000FFF76BFE01202349C1F890021020FFF727
:101C6000EDFC10BD10B500201D49083108601020A2
:101C7000FFF7E4FC0120FFF758FE4320FFF755FE75
:101C80000020FFF752FE0020FFF74FFE5A20FFF71B
:101C90004CFE5A20FFF749FE5A20FFF746FE5A2015
:101CA000FFF743FE5A20FFF740FE01200D49C1F81F
:101CB00090021020FFF7C2FC10BD10B5FFF741FFE6
:101CC000FFF73FFFFFF73DFFFFF75AFFFFF783FFE7
:101CD000FFF7C8FF10BD0000000C024040010020CB
:101CE000888241420080414254000020520000207E
:101CF0005600002030B50B4601460020202201246A
:101D000009E021FA02F59D4205D303FA02F5491BC9
:101D100004FA02F52844151EA2F10102F1DC30BDDF
:101D2000064C074D06E0E06840F0010394E8070028
:101D300098471034AC42F6D3FEF72AFAD81E0008B2
:101D4000F81E00080FB4054B10B503A9044A029809
:101D500000F018F810BC5DF814FB00001317000821
:101D60004C00002002E008C8121F08C1002AFAD166
:101D700070477047002001E001C1121F002AFBD10B
:101D8000704700002DE9FF4F89B09B4604460025AF
:101D900006E025280BD05A460B999047641C6D1C11
:101DA00020780028F5D10DB02846BDE8F08F002737
:101DB000B8460122474900E0074314F8013F203BA1
:101DC00002FA03F00842F7D120782E2819D114F82E
:101DD000010F47F004072A280ED06FF02F02207859
:101DE000A0F1300109290CD808EB880102EB410170
:101DF00000EB0108641CF2E70A98641C50F8048B9D
:101E00000A9020780028CED0642808D0692806D00F
:101E100075281ED05A460B9990476D1C58E00A99B8
:101E20004FF00A0901C90A91002802DA40422D2127
:101E300002E0390504D52B218DF82010012103E0A3
:101E4000F90704D02021F7E78A4608AE0DE000210B
:101E5000FAE70A994FF00A0901C90A91F7E74946DA
:101E6000FFF748FF303106F8011D0028F7D1ADEB30
:101E7000060000F12009780701D44FF00108C84599
:101E800002DDA8EB090000E000208046002706E004
:101E900008A85A46C05D0B9990476D1C7F1C57459A
:101EA000F6DB04E030205A460B9990476D1CB8F1E0
:101EB0000001A8F10108F5DC05E016F8010B5A460F
:101EC0000B9990476D1CB9F10001A9F10109F4DCEF
:101ED000641C65E709280100F81E000800000020C6
:101EE00078000000641D0008701F000878000020C2
:101EF000D8040000741D000800000000000000006D
:101F000000000000000000000000000000000000D1
:101F1000010000000000000001000000007A030A38
:101F20000000000000000000010203040607080989
:101F3000000000000102030401020304060708096F
:101F4000000000000000000000000000014201004D
:101F50000200030004000500060007000800090055
:101F60000A000B000C000D000E000F001000000016
:040000050800018965
:00000001FF
